{
  "contractName": "Rpsls",
  "abi": [
    {
      "constant": false,
      "inputs": [
        {
          "name": "gameId",
          "type": "bytes32"
        },
        {
          "name": "randomAgent",
          "type": "bool"
        }
      ],
      "name": "createGame",
      "outputs": [],
      "payable": true,
      "stateMutability": "payable",
      "type": "function"
    },
    {
      "constant": false,
      "inputs": [
        {
          "name": "gameId",
          "type": "bytes32"
        }
      ],
      "name": "joinGame",
      "outputs": [],
      "payable": true,
      "stateMutability": "payable",
      "type": "function"
    },
    {
      "constant": false,
      "inputs": [
        {
          "name": "gameId",
          "type": "bytes32"
        },
        {
          "name": "moveHash",
          "type": "bytes32"
        }
      ],
      "name": "move",
      "outputs": [],
      "payable": false,
      "stateMutability": "nonpayable",
      "type": "function"
    },
    {
      "constant": false,
      "inputs": [
        {
          "name": "gameId",
          "type": "bytes32"
        },
        {
          "name": "nonce",
          "type": "string"
        }
      ],
      "name": "reveal",
      "outputs": [],
      "payable": false,
      "stateMutability": "nonpayable",
      "type": "function"
    },
    {
      "constant": true,
      "inputs": [
        {
          "name": "gameId",
          "type": "bytes32"
        }
      ],
      "name": "getWinner",
      "outputs": [
        {
          "name": "",
          "type": "address"
        }
      ],
      "payable": false,
      "stateMutability": "view",
      "type": "function"
    }
  ],
  "bytecode": "0x6080604052655af3107a400060025534801561001a57600080fd5b5061221e8061002a6000396000f3fe60806040526004361061004a5760003560e01c806306bd8d8b1461004f5780631e5f91491461008957806366d8c46314610104578063a361b184146101d6578063bf4747661461021b575b600080fd5b6100876004803603604081101561006557600080fd5b8101908080359060200190929190803515159060200190929190505050610249565b005b34801561009557600080fd5b506100c2600480360360208110156100ac57600080fd5b8101908080359060200190929190505050610451565b604051808273ffffffffffffffffffffffffffffffffffffffff1673ffffffffffffffffffffffffffffffffffffffff16815260200191505060405180910390f35b34801561011057600080fd5b506101d46004803603604081101561012757600080fd5b81019080803590602001909291908035906020019064010000000081111561014e57600080fd5b82018360208201111561016057600080fd5b8035906020019184600183028401116401000000008311171561018257600080fd5b91908080601f016020809104026020016040519081016040528093929190818152602001838380828437600081840152601f19601f820116905080830192505050505050509192919290505050610541565b005b3480156101e257600080fd5b50610219600480360360408110156101f957600080fd5b8101908080359060200190929190803590602001909291905050506117c0565b005b6102476004803603602081101561023157600080fd5b8101908080359060200190929190505050611d30565b005b816000600381111561025757fe5b6001600083815260200190815260200160002060000160009054906101000a900460ff16600381111561028657fe5b146102f9576040517f08c379a00000000000000000000000000000000000000000000000000000000081526004018080602001828103825260138152602001807f47616d6520616c7265616479206578697374730000000000000000000000000081525060200191505060405180910390fd5b811580610311575081801561031057506002543410155b5b610383576040517f08c379a00000000000000000000000000000000000000000000000000000000081526004018080602001828103825260188152602001807f4269642061746c6561737420302e30303031206574686572000000000000000081525060200191505060405180910390fd5b600180600085815260200190815260200160002060000160006101000a81548160ff021916908360038111156103b557fe5b0217905550336000806101000a81548173ffffffffffffffffffffffffffffffffffffffff021916908373ffffffffffffffffffffffffffffffffffffffff160217905550816001600085815260200190815260200160002060020160146101000a81548160ff021916908315150217905550346001600085815260200190815260200160002060030160008282540192505081905550505050565b60008160038081111561046057fe5b6001600083815260200190815260200160002060000160009054906101000a900460ff16600381111561048f57fe5b14610502576040517f08c379a00000000000000000000000000000000000000000000000000000000081526004018080602001828103825260188152602001807f47616d65206e6f74206f70656e206f722073746172746564000000000000000081525060200191505060405180910390fd5b6001600084815260200190815260200160002060020160009054906101000a900473ffffffffffffffffffffffffffffffffffffffff16915050919050565b816002600381111561054f57fe5b6001600083815260200190815260200160002060000160009054906101000a900460ff16600381111561057e57fe5b146105f1576040517f08c379a00000000000000000000000000000000000000000000000000000000081526004018080602001828103825260138152602001807f47616d65206973206e6f7420737461727465640000000000000000000000000081525060200191505060405180910390fd5b826001600082815260200190815260200160002060060160009054906101000a900460ff16801561064257506001600082815260200190815260200160002060060160019054906101000a900460ff165b6106b4576040517f08c379a00000000000000000000000000000000000000000000000000000000081526004018080602001828103825260198152602001807f426f746820706c6179657273206e65656420746f20706c61790000000000000081525060200191505060405180910390fd5b3373ffffffffffffffffffffffffffffffffffffffff166001600086815260200190815260200160002060000160019054906101000a900473ffffffffffffffffffffffffffffffffffffffff1673ffffffffffffffffffffffffffffffffffffffff161415610834578260016000868152602001908152602001600020600701908051906020019061074892919061214d565b50600180600086815260200190815260200160002060090160006101000a81548160ff0219169083151502179055506001600085815260200190815260200160002060020160149054906101000a900460ff161561082f576040518060400160405280600b81526020017f72616e646f6d6e6f6e63650000000000000000000000000000000000000000008152506001600086815260200190815260200160002060080190805190602001906107ff92919061214d565b50600180600086815260200190815260200160002060090160016101000a81548160ff0219169083151502179055505b6108f9565b3373ffffffffffffffffffffffffffffffffffffffff166001600086815260200190815260200160002060010160009054906101000a900473ffffffffffffffffffffffffffffffffffffffff1673ffffffffffffffffffffffffffffffffffffffff1614156108f857826001600086815260200190815260200160002060080190805190602001906108c892919061214d565b50600180600086815260200190815260200160002060090160016101000a81548160ff0219169083151502179055505b5b610902846120ab565b156117ba57600060016000868152602001908152602001600020905060006001600087815260200190815260200160002060030154905060008260070160405160200180807f3100000000000000000000000000000000000000000000000000000000000000815250600101828054600181600116156101000203166002900480156109c55780601f106109a35761010080835404028352918201916109c5565b820191906000526020600020905b8154815290600101906020018083116109b1575b505091505060405160208183030381529060405280519060200120905060008360070160405160200180807f320000000000000000000000000000000000000000000000000000000000000081525060010182805460018160011615610100020316600290048015610a6e5780601f10610a4c576101008083540402835291820191610a6e565b820191906000526020600020905b815481529060010190602001808311610a5a575b505091505060405160208183030381529060405280519060200120905060008460070160405160200180807f330000000000000000000000000000000000000000000000000000000000000081525060010182805460018160011615610100020316600290048015610b175780601f10610af5576101008083540402835291820191610b17565b820191906000526020600020905b815481529060010190602001808311610b03575b505091505060405160208183030381529060405280519060200120905060008560070160405160200180807f340000000000000000000000000000000000000000000000000000000000000081525060010182805460018160011615610100020316600290048015610bc05780601f10610b9e576101008083540402835291820191610bc0565b820191906000526020600020905b815481529060010190602001808311610bac575b505091505060405160208183030381529060405280519060200120905060008660070160405160200180807f350000000000000000000000000000000000000000000000000000000000000081525060010182805460018160011615610100020316600290048015610c695780601f10610c47576101008083540402835291820191610c69565b820191906000526020600020905b815481529060010190602001808311610c55575b505091505060405160208183030381529060405280519060200120905060008760080160405160200180807f310000000000000000000000000000000000000000000000000000000000000081525060010182805460018160011615610100020316600290048015610d125780601f10610cf0576101008083540402835291820191610d12565b820191906000526020600020905b815481529060010190602001808311610cfe575b505091505060405160208183030381529060405280519060200120905060008860080160405160200180807f320000000000000000000000000000000000000000000000000000000000000081525060010182805460018160011615610100020316600290048015610dbb5780601f10610d99576101008083540402835291820191610dbb565b820191906000526020600020905b815481529060010190602001808311610da7575b505091505060405160208183030381529060405280519060200120905060008960080160405160200180807f330000000000000000000000000000000000000000000000000000000000000081525060010182805460018160011615610100020316600290048015610e645780601f10610e42576101008083540402835291820191610e64565b820191906000526020600020905b815481529060010190602001808311610e50575b505091505060405160208183030381529060405280519060200120905060008a60080160405160200180807f340000000000000000000000000000000000000000000000000000000000000081525060010182805460018160011615610100020316600290048015610f0d5780601f10610eeb576101008083540402835291820191610f0d565b820191906000526020600020905b815481529060010190602001808311610ef9575b505091505060405160208183030381529060405280519060200120905060008b60080160405160200180807f350000000000000000000000000000000000000000000000000000000000000081525060010182805460018160011615610100020316600290048015610fb65780601f10610f94576101008083540402835291820191610fb6565b820191906000526020600020905b815481529060010190602001808311610fa2575b5050915050604051602081830303815290604052805190602001209050898c60040154141561114857818c600501541480610ff45750828c60050154145b15611065578b60000160019054906101000a900473ffffffffffffffffffffffffffffffffffffffff168c60020160006101000a81548173ffffffffffffffffffffffffffffffffffffffff021916908373ffffffffffffffffffffffffffffffffffffffff160217905550611143565b848c6005015414156110da576000809054906101000a900473ffffffffffffffffffffffffffffffffffffffff168c60020160006101000a81548173ffffffffffffffffffffffffffffffffffffffff021916908373ffffffffffffffffffffffffffffffffffffffff160217905550611142565b8b60010160009054906101000a900473ffffffffffffffffffffffffffffffffffffffff168c60020160006101000a81548173ffffffffffffffffffffffffffffffffffffffff021916908373ffffffffffffffffffffffffffffffffffffffff1602179055505b5b61171c565b888c6004015414156112bd57848c6005015414806111695750808c60050154145b156111da578b60000160019054906101000a900473ffffffffffffffffffffffffffffffffffffffff168c60020160006101000a81548173ffffffffffffffffffffffffffffffffffffffff021916908373ffffffffffffffffffffffffffffffffffffffff1602179055506112b8565b838c60050154141561124f576000809054906101000a900473ffffffffffffffffffffffffffffffffffffffff168c60020160006101000a81548173ffffffffffffffffffffffffffffffffffffffff021916908373ffffffffffffffffffffffffffffffffffffffff1602179055506112b7565b8b60010160009054906101000a900473ffffffffffffffffffffffffffffffffffffffff168c60020160006101000a81548173ffffffffffffffffffffffffffffffffffffffff021916908373ffffffffffffffffffffffffffffffffffffffff1602179055505b5b61171b565b878c60040154141561143257838c6005015414806112de5750818c60050154145b1561134f578b60000160019054906101000a900473ffffffffffffffffffffffffffffffffffffffff168c60020160006101000a81548173ffffffffffffffffffffffffffffffffffffffff021916908373ffffffffffffffffffffffffffffffffffffffff16021790555061142d565b828c6005015414156113c4576000809054906101000a900473ffffffffffffffffffffffffffffffffffffffff168c60020160006101000a81548173ffffffffffffffffffffffffffffffffffffffff021916908373ffffffffffffffffffffffffffffffffffffffff16021790555061142c565b8b60010160009054906101000a900473ffffffffffffffffffffffffffffffffffffffff168c60020160006101000a81548173ffffffffffffffffffffffffffffffffffffffff021916908373ffffffffffffffffffffffffffffffffffffffff1602179055505b5b61171a565b868c6004015414156115a757838c6005015414806114535750808c60050154145b156114c4578b60000160019054906101000a900473ffffffffffffffffffffffffffffffffffffffff168c60020160006101000a81548173ffffffffffffffffffffffffffffffffffffffff021916908373ffffffffffffffffffffffffffffffffffffffff1602179055506115a2565b818c600501541415611539576000809054906101000a900473ffffffffffffffffffffffffffffffffffffffff168c60020160006101000a81548173ffffffffffffffffffffffffffffffffffffffff021916908373ffffffffffffffffffffffffffffffffffffffff1602179055506115a1565b8b60010160009054906101000a900473ffffffffffffffffffffffffffffffffffffffff168c60020160006101000a81548173ffffffffffffffffffffffffffffffffffffffff021916908373ffffffffffffffffffffffffffffffffffffffff1602179055505b5b611719565b858c60040154141561171857828c6005015414806115c85750848c60050154145b15611639578b60000160019054906101000a900473ffffffffffffffffffffffffffffffffffffffff168c60020160006101000a81548173ffffffffffffffffffffffffffffffffffffffff021916908373ffffffffffffffffffffffffffffffffffffffff160217905550611717565b818c6005015414156116ae576000809054906101000a900473ffffffffffffffffffffffffffffffffffffffff168c60020160006101000a81548173ffffffffffffffffffffffffffffffffffffffff021916908373ffffffffffffffffffffffffffffffffffffffff160217905550611716565b8b60010160009054906101000a900473ffffffffffffffffffffffffffffffffffffffff168c60020160006101000a81548173ffffffffffffffffffffffffffffffffffffffff021916908373ffffffffffffffffffffffffffffffffffffffff1602179055505b5b5b5b5b5b5b8b60020160009054906101000a900473ffffffffffffffffffffffffffffffffffffffff1673ffffffffffffffffffffffffffffffffffffffff166108fc8c9081150290604051600060405180830381858888f19350505050158015611786573d6000803e3d6000fd5b5060038c60000160006101000a81548160ff021916908360038111156117a857fe5b02179055505050505050505050505050505b50505050565b81600260038111156117ce57fe5b6001600083815260200190815260200160002060000160009054906101000a900460ff1660038111156117fd57fe5b14611870576040517f08c379a00000000000000000000000000000000000000000000000000000000081526004018080602001828103825260138152602001807f47616d65206973206e6f7420737461727465640000000000000000000000000081525060200191505060405180910390fd5b3373ffffffffffffffffffffffffffffffffffffffff166001600085815260200190815260200160002060000160019054906101000a900473ffffffffffffffffffffffffffffffffffffffff1673ffffffffffffffffffffffffffffffffffffffff161415611c7657816001600085815260200190815260200160002060040181905550600180600085815260200190815260200160002060060160006101000a81548160ff0219169083151502179055506001600084815260200190815260200160002060020160149054906101000a900460ff1615611c71576000611956612104565b905060018114156119ef5760405160200180807f3100000000000000000000000000000000000000000000000000000000000000815250600101807f72616e646f6d6e6f6e6365000000000000000000000000000000000000000000815250600b019050604051602081830303815290604052805190602001206001600086815260200190815260200160002060050181905550611c41565b6002811415611a865760405160200180807f3200000000000000000000000000000000000000000000000000000000000000815250600101807f72616e646f6d6e6f6e6365000000000000000000000000000000000000000000815250600b019050604051602081830303815290604052805190602001206001600086815260200190815260200160002060050181905550611c40565b6003811415611b1d5760405160200180807f3300000000000000000000000000000000000000000000000000000000000000815250600101807f72616e646f6d6e6f6e6365000000000000000000000000000000000000000000815250600b019050604051602081830303815290604052805190602001206001600086815260200190815260200160002060050181905550611c3f565b6004811415611bb45760405160200180807f3400000000000000000000000000000000000000000000000000000000000000815250600101807f72616e646f6d6e6f6e6365000000000000000000000000000000000000000000815250600b019050604051602081830303815290604052805190602001206001600086815260200190815260200160002060050181905550611c3e565b60405160200180807f3500000000000000000000000000000000000000000000000000000000000000815250600101807f72616e646f6d6e6f6e6365000000000000000000000000000000000000000000815250600b0190506040516020818303038152906040528051906020012060016000868152602001908152602001600020600501819055505b5b5b5b600180600086815260200190815260200160002060060160016101000a81548160ff021916908315150217905550505b611d2b565b3373ffffffffffffffffffffffffffffffffffffffff166001600085815260200190815260200160002060010160009054906101000a900473ffffffffffffffffffffffffffffffffffffffff1673ffffffffffffffffffffffffffffffffffffffff161415611d2a57816001600085815260200190815260200160002060050181905550600180600085815260200190815260200160002060060160016101000a81548160ff0219169083151502179055505b5b505050565b8060016003811115611d3e57fe5b6001600083815260200190815260200160002060000160009054906101000a900460ff166003811115611d6d57fe5b14611de0576040517f08c379a00000000000000000000000000000000000000000000000000000000081526004018080602001828103825260108152602001807f47616d65206973206e6f74206f70656e0000000000000000000000000000000081525060200191505060405180910390fd5b600254341015611e58576040517f08c379a00000000000000000000000000000000000000000000000000000000081526004018080602001828103825260188152602001807f4269642061746c6561737420302e30303031206574686572000000000000000081525060200191505060405180910390fd5b600073ffffffffffffffffffffffffffffffffffffffff166001600084815260200190815260200160002060000160019054906101000a900473ffffffffffffffffffffffffffffffffffffffff1673ffffffffffffffffffffffffffffffffffffffff161415611ff557336001600084815260200190815260200160002060000160016101000a81548173ffffffffffffffffffffffffffffffffffffffff021916908373ffffffffffffffffffffffffffffffffffffffff1602179055506001600083815260200190815260200160002060020160149054906101000a900460ff1615611ff0576000809054906101000a900473ffffffffffffffffffffffffffffffffffffffff166001600084815260200190815260200160002060010160006101000a81548173ffffffffffffffffffffffffffffffffffffffff021916908373ffffffffffffffffffffffffffffffffffffffff16021790555060026001600084815260200190815260200160002060000160006101000a81548160ff02191690836003811115611fea57fe5b02179055505b612083565b336001600084815260200190815260200160002060010160006101000a81548173ffffffffffffffffffffffffffffffffffffffff021916908373ffffffffffffffffffffffffffffffffffffffff16021790555060026001600084815260200190815260200160002060000160006101000a81548160ff0219169083600381111561207d57fe5b02179055505b3460016000848152602001908152602001600020600301600082825401925050819055505050565b60006001600083815260200190815260200160002060090160009054906101000a900460ff1680156120fd57506001600083815260200190815260200160002060090160019054906101000a900460ff165b9050919050565b600060016005424460405160200180838152602001828152602001925050506040516020818303038152906040528051906020012060001c8161214357fe5b060160ff16905090565b828054600181600116156101000203166002900490600052602060002090601f016020900481019282601f1061218e57805160ff19168380011785556121bc565b828001600101855582156121bc579182015b828111156121bb5782518255916020019190600101906121a0565b5b5090506121c991906121cd565b5090565b6121ef91905b808211156121eb5760008160009055506001016121d3565b5090565b9056fea165627a7a72305820f8e8cbf99c3ca85b5d015f2c3f2562cb4de8f3cb8513b760b422ccf3df3f7e930029",
  "source": "pragma solidity >=0.4.22 <0.6.0;\n\ncontract Rpsls\n{\n    enum GameStatus { NONEXISTENT, OPEN, STARTED, CLOSED }\n    struct Game\n    {\n        GameStatus status;\n        address payable player1;\n        address payable player2;\n        address payable winner;\n        bool randomAgent;\n        uint256 bounty;\n        bytes32 player1Hash;\n        bytes32 player2Hash;\n        bool player1Played;\n        bool player2Played;\n        string player1Nonce;\n        string player2Nonce;\n        bool player1Revealed;\n        bool player2Revealed;\n    }\n    address payable private owner;\n    mapping (bytes32 => Game) private games;\n    uint private bidAmount = 0.0001 ether;\n\n    modifier gameDoesNotExist(bytes32 gameId)\n    {\n        require(games[gameId].status == GameStatus.NONEXISTENT, \"Game already exists\");\n        _;\n    }\n\n    modifier gameIsOpen(bytes32 gameId)\n    {\n        require(games[gameId].status == GameStatus.OPEN, \"Game is not open\");\n        _;\n    }\n\n    modifier gameIsStarted(bytes32 gameId)\n    {\n        require(games[gameId].status == GameStatus.STARTED, \"Game is not started\");\n        _;\n    }\n\n    modifier bothPlayersPlayed(bytes32 gameId)\n    {\n        require(games[gameId].player1Played && games[gameId].player2Played, \"Both players need to play\");\n        _;\n    }\n\n    modifier gameIsClosed(bytes32 gameId)\n    {\n        require(games[gameId].status == GameStatus.CLOSED, \"Game not open or started\");\n        _;\n    }\n\n    function bothPlayersRevealed(bytes32 gameId) private view returns(bool)\n    {\n        return games[gameId].player1Revealed && games[gameId].player2Revealed;\n    }\n\n    function random() private view returns(uint)\n    {\n        return uint8(uint256(keccak256(abi.encodePacked(block.timestamp, block.difficulty)))%5) + 1;\n    }\n\n    function createGame(bytes32 gameId, bool randomAgent) public payable gameDoesNotExist(gameId)\n    {\n        require(!randomAgent || (randomAgent && msg.value >= bidAmount), \"Bid atleast 0.0001 ether\");\n        games[gameId].status = GameStatus.OPEN;\n        owner = msg.sender;\n        games[gameId].randomAgent = randomAgent;\n        games[gameId].bounty += msg.value;\n    }\n\n    function joinGame(bytes32 gameId) public payable gameIsOpen(gameId)\n    {\n        require (msg.value >= bidAmount,\"Bid atleast 0.0001 ether\");\n        if(games[gameId].player1 == address(0))\n        {\n            games[gameId].player1 = msg.sender;\n            if(games[gameId].randomAgent)\n            {\n                games[gameId].player2 = owner;\n                games[gameId].status = GameStatus.STARTED;\n            }\n        }\n        else\n        {\n            games[gameId].player2 = msg.sender;\n            games[gameId].status = GameStatus.STARTED;\n        }\n        games[gameId].bounty += msg.value;\n    }\n\n    function move(bytes32 gameId, bytes32 moveHash) public gameIsStarted(gameId)\n    {\n        if(games[gameId].player1 == msg.sender)\n        {\n            games[gameId].player1Hash = moveHash;\n            games[gameId].player1Played = true;\n            if(games[gameId].randomAgent)\n            {\n                uint randNum = random();\n                if(randNum == 1)\n                {\n                    games[gameId].player2Hash = keccak256(abi.encodePacked(\"1\", \"randomnonce\"));\n                }\n                else if(randNum == 2)\n                {\n                    games[gameId].player2Hash = keccak256(abi.encodePacked(\"2\", \"randomnonce\"));\n                }\n                else if(randNum == 3)\n                {\n                    games[gameId].player2Hash = keccak256(abi.encodePacked(\"3\", \"randomnonce\"));\n                }\n                else if(randNum == 4)\n                {\n                    games[gameId].player2Hash = keccak256(abi.encodePacked(\"4\", \"randomnonce\"));\n                }\n                else\n                {\n                    games[gameId].player2Hash = keccak256(abi.encodePacked(\"5\", \"randomnonce\"));\n                }\n                games[gameId].player2Played = true;\n            }\n        }\n        else if(games[gameId].player2 == msg.sender)\n        {\n            games[gameId].player2Hash = moveHash;\n            games[gameId].player2Played = true;\n        }\n    }\n\n    function reveal(bytes32 gameId, string memory nonce) public gameIsStarted(gameId) bothPlayersPlayed(gameId)\n    {\n        if(games[gameId].player1 == msg.sender)\n        {\n            games[gameId].player1Nonce = nonce;\n            games[gameId].player1Revealed = true;\n            if(games[gameId].randomAgent)\n            {\n                games[gameId].player2Nonce = \"randomnonce\";\n                games[gameId].player2Revealed = true;\n            }\n        }\n        else if(games[gameId].player2 == msg.sender)\n        {\n            games[gameId].player2Nonce = nonce;\n            games[gameId].player2Revealed = true;\n        }\n        if(bothPlayersRevealed(gameId))\n        {\n            Game storage game = games[gameId];\n            uint256 bounty = games[gameId].bounty;\n            bytes32 player1RockHash = keccak256(abi.encodePacked(\"1\", game.player1Nonce));\n            bytes32 player1PaperHash = keccak256(abi.encodePacked(\"2\", game.player1Nonce));\n            bytes32 player1ScissorHash = keccak256(abi.encodePacked(\"3\", game.player1Nonce));\n            bytes32 player1LizardHash = keccak256(abi.encodePacked(\"4\", game.player1Nonce));\n            bytes32 player1SpockHash = keccak256(abi.encodePacked(\"5\", game.player1Nonce));\n            bytes32 player2RockHash = keccak256(abi.encodePacked(\"1\", game.player2Nonce));\n            bytes32 player2PaperHash = keccak256(abi.encodePacked(\"2\", game.player2Nonce));\n            bytes32 player2ScissorHash = keccak256(abi.encodePacked(\"3\", game.player2Nonce));\n            bytes32 player2LizardHash = keccak256(abi.encodePacked(\"4\", game.player2Nonce));\n            bytes32 player2SpockHash = keccak256(abi.encodePacked(\"5\", game.player2Nonce));\n            if(game.player1Hash == player1RockHash)\n            {\n                if(game.player2Hash == player2LizardHash || game.player2Hash == player2ScissorHash)\n                {\n                    game.winner = game.player1;\n                }\n                else if(game.player2Hash == player2RockHash)\n                {\n                    game.winner = owner;\n                }\n                else\n                {\n                    game.winner = game.player2;\n                }\n            }\n            else if(game.player1Hash == player1PaperHash)\n            {\n                if(game.player2Hash == player2RockHash || game.player2Hash == player2SpockHash)\n                {\n                    game.winner = game.player1;\n                }\n                else if(game.player2Hash == player2PaperHash)\n                {\n                    game.winner = owner;\n                }\n                else\n                {\n                    game.winner = game.player2;\n                }\n            }\n            else if(game.player1Hash == player1ScissorHash)\n            {\n                if(game.player2Hash == player2PaperHash || game.player2Hash == player2LizardHash)\n                {\n                    game.winner = game.player1;\n                }\n                else if(game.player2Hash == player2ScissorHash)\n                {\n                    game.winner = owner;\n                }\n                else\n                {\n                    game.winner = game.player2;\n                }\n            }\n            else if(game.player1Hash == player1LizardHash)\n            {\n                if(game.player2Hash == player2PaperHash || game.player2Hash == player2SpockHash)\n                {\n                    game.winner = game.player1;\n                }\n                else if(game.player2Hash == player2LizardHash)\n                {\n                    game.winner = owner;\n                }\n                else\n                {\n                    game.winner = game.player2;\n                }\n            }\n            else if(game.player1Hash == player1SpockHash)\n            {\n                if(game.player2Hash == player2ScissorHash || game.player2Hash == player2RockHash)\n                {\n                    game.winner = game.player1;\n                }\n                else if(game.player2Hash == player2LizardHash)\n                {\n                    game.winner = owner;\n                }\n                else\n                {\n                    game.winner = game.player2;\n                }\n            }\n            game.winner.transfer(bounty);\n            game.status = GameStatus.CLOSED;\n        }\n    }\n\n    function getWinner(bytes32 gameId) public view gameIsClosed(gameId) returns(address)\n    {\n        return games[gameId].winner;\n    }\n}",
  "sourcePath": "/home/tarun/Documents/Education/Sem_3/Assignments/Blockchain/rock-paper-scissor-lizard-spock-blockchain-dapp/contracts/Rpsls.sol",
  "compiler": {
    "name": "solc",
    "version": "0.5.8+commit.23d335f2.Emscripten.clang"
  },
  "schemaVersion": "3.0.16",
  "updatedAt": "2019-11-29T22:42:55.063Z",
  "devdoc": {
    "methods": {}
  },
  "userdoc": {
    "methods": {}
  }
}